:020000040800F2
:10000000B809002001010008DB220008531E000887
:10001000D922000815020008792E0008000000000F
:10002000000000000000000000000000A5240008FF
:100030000704000800000000FD220008A1250008B8
:100040001B0100081B0100081B0100081B01000820
:100050001B0100081B0100081B0100081B01000810
:100060001B0100081B0100081B0100081B01000800
:10007000B9030008C5030008D1030008DD03000828
:100080001B0100081B0100081B0100081B010008E0
:100090001B0100081B0100081B0100081B010008D0
:1000A0001B0100081B0100081B0100081B010008C0
:1000B00065260008712600087D2600081B0100083F
:1000C0001B0100081B0100081B0100081B010008A0
:1000D0001B010008C92B00081B010008D52B0008D4
:1000E0001B0100081B0100081B010008DFF80CD0F1
:1000F00000F02AF80048004745370008B8090020FA
:100100000648804706480047FEE7FEE7FEE7FEE7B1
:10011000FEE7FEE7FEE7FEE7FEE7FEE71D26000836
:10012000ED00000840EA01039B0703D009E008C97D
:10013000121F08C0042AFAD203E011F8013B00F8AC
:10014000013B521EF9D27047064C074D06E0E068AD
:1001500040F0010394E8070098471034AC42F6D30E
:10016000FFF7C8FFBC3F0008DC3F00080E4910B590
:100170000878CD2813D14878DC2810D1C878812898
:100180000DD10B79002203205B1D03E00C5C624063
:10019000401CC0B28342F9D8085C904201D00020D4
:1001A00010BD012010BD00000004002070B5054600
:1001B0000C21054801F0E0FB044C656100F0DAFB1E
:1001C000A0610420A07070BD440100201400002034
:1001D00010B50C21054801F0E7FB0022022104487C
:1001E00000F0C3FB03490120887010BD44010020CA
:1001F000000C01401400002010B50C21034801F050
:10020000BBFB03490020887010BD000044010020A2
:1002100014000020FEE770B50D46044600F0AAFB6E
:10022000A04201D3001B01E0E1430844A84201D3EE
:10023000012070BD002070BD00F032B810B500F094
:100240006FF801094FF41650082907D2DFE801F0D2
:1002500004070A060D1013164FF4966010BD4FF4F4
:10026000166010BD4FF4965010BD4FF4964010BD6F
:100270004FF4164010BD4FF4614010BD4FF4E13013
:1002800010BD10B500F04CF8800701D5082010BD56
:10029000072010BD10B500F043F8C0F3810010BD79
:1002A0002DE9F0411C4E4FF480552946304600F0B0
:1002B00057FB40EA4404A900304600F051FB174FB9
:1002C00040EA44042911384600F04AFB40EA44045D
:1002D0002946384600F044FB40EA440408213046F1
:1002E00000F03EFB40EA44042021304600F038FB99
:1002F00040EA44048021304600F032FB40EA4404E6
:10030000E910304600F02CFB40EA4400C0B280F017
:10031000FF00BDE8F0810000000C01400008014032
:100320002DE9F0411C4D4FF400584146284600F09D
:1003300017FB04464FF400463146284600F010FBF8
:10034000164F40EA4404E914384600F009FB40EA3D
:1003500044043146384600F003FB40EA44041021CF
:10036000284600F0FDFA40EA44044021284600F007
:10037000F7FA40EA4404A915284600F0F1FA40EAE9
:1003800044044146064800F0EBFA40EA4400C0B29B
:1003900080F0FF00BDE8F081000C01400008014042
:1003A0000010014010B5FFF7BBFFC00701D00220CD
:1003B00010BD012010BD0000014800F05DB8000034
:1003C00074030020014800F057B80000AC0300207F
:1003D000014800F051B800003C030020014800F043
:1003E0004BB800000403002010B504686360436844
:1003F000102B036803D099600068C26010BD9A603A
:100400000068C16010BD7047FEE710B5044600F0FB
:10041000B1FAA04201D3001B10BDE143084410BD56
:100420002DE9F04104460068016821F001010160F6
:1004300000F0A0FA054600264FF47A7710E000BFDE
:1004400000F098FA401BB8420AD954F8340F40F033
:10045000200044F81409032060702670BDE8F08184
:1004600020680068C007EBD1012084F8210084F8DF
:1004700020600020F2E700002DE9F05FDFF86082E5
:100480000446D8F80020DFF858B2954D944E944FAA
:100490000068DFF84C92DFF848A20BF1080B1C351E
:1004A000303644374FF400614FF4004C4FF4002EC7
:1004B00009F158090AF16C0A584501D1082316E0E0
:1004C000A84201D1802312E0B04201D10B460EE0D8
:1004D000B84201D163460AE0484501D1734606E0BF
:1004E000504502D14FF4000301E04FF000631A427F
:1004F00031D00268D24312072DD4026822F00802DC
:1005000002602068584501D1082114E0A84201D1B9
:10051000802110E0B0420ED0B84201D161460AE01D
:10052000484501D1714606E0504502D14FF4000123
:1005300001E04FF00061C8F80410606B40F001006A
:100540006063042084F82100002084F82000216BDF
:1005500009B1204688476248D0F800C04FF4806156
:1005600020680A010B044FF4802E584502D14FF049
:10057000040816E0A84202D14FF0400811E0B04252
:1005800001D188460DE0B84201D1904609E04845C6
:1005900001D1F04605E0504502D14FF4800800E05B
:1005A00098461CEA080F33D0D0F800C06FEA0C0C54
:1005B0005FEA4C7C2CD4D0F800C05FEA8C6C05D488
:1005C000D0F800C02CF0040CC0F800C020685845DA
:1005D00001D1042113E0A84201D140210FE0B04233
:1005E0000DD0B84201D1114609E0484501D171460C
:1005F00005E0504502D14FF4800100E0194638482B
:100600004160112084F82100E16A09B12046884741
:10061000334AD2F800C05B46206851154FF4005BA6
:100620004FF4003E984202D14FF0020817E0A84272
:1006300002D14FF0200812E0B04201D188460EE00E
:10064000B84201D1D8460AE0484501D1F04606E05B
:10065000504502D14FF4001801E04FF000781CEA39
:10066000080F3BD0D0F800C06FEA0C0C5FEA8C7C1E
:1006700034D4D0F800C05FEA8C6C05D4D0F800C048
:100680002CF0020CC0F800C02068984201D1022171
:1006900014E0A84201D1202110E0B0420ED0B842AF
:1006A00001D159460AE0484501D1714606E050455E
:1006B00002D14FF4001101E04FF000715160606B06
:1006C0006063012084F82100002084F82000A16AE2
:1006D000002903D02046BDE8F05F0847BDE8F09F41
:1006E0000000024070B520B190F82110002411B133
:1006F00003E0012070BD80F82040022180F8211025
:1007000003681A6843F6F0718A43D0E9011529435A
:10071000D0E903563543294345692943856929436F
:10072000C5692943114319604463012180F82110F0
:10073000002070BD70B5044690F82000012823D039
:10074000012084F82000022084F821002068056838
:1007500025F0010505602046FFF746FE2068016888
:1007600041F0020101602068016841F0040101606C
:100770002068016841F0080101602068016841F0CB
:1007800001010160002070BD022070BD31B500F094
:10079000F1F8044600F0EEF80099001B8842F9D306
:1007A00038BD00002DE9F84FDFF890A100220AF1D2
:1007B000040B144601274FF00F090BF1040E00BF84
:1007C0000B6807FA04F52B40AB4274D1DFF870C117
:1007D0004E68A6EB0C0866452BD00DDC032E34D0FA
:1007E00005DC36B3012E19D0022E2FD11BE0112EBD
:1007F00016D0122E2AD119E0B8F5881F19D006DCC0
:10080000B8F5803F15D0B8F5801F1FD111E0B8F5BD
:10081000001F0ED0B8F5041F18D10AE0CA6815E011
:10082000CA68121D12E0CA6808320FE0CA680C32AA
:100830000CE08A682AB1012A4FF0080203D0456112
:1008400004E0042202E0056100E00022FF2B01D851
:10085000064601E000F104064FEA840501D9A5F13E
:100860002005D6F800C009FA05F82CEA080C02FAAF
:1008700005F54CEA050CC6F800C04D68ED0057D5EB
:10088000304DAE6946F00106AE61AD6924F0030655
:1008900005F0010500952C4D06EB050CDCF8085021
:1008A000A6074FEA167809FA08F6B543274EB04274
:1008B00002D1002610E03BE0254EB04201D10126D6
:1008C0000AE0244EB04201D1022605E0224EB04299
:1008D00001D1032600E0042606FA08F62E43CCF8E0
:1008E00008604D68DAF80060ED03554601D51E43F7
:1008F00000E09E432E604D68DBF80060AD035D466E
:1009000001D51E4300E09E432E604D68DEF8006076
:10091000ED02754601D51E4300E09E432E604D68F2
:10092000AD020E4D2E6801D51E4300E09E432E60A1
:10093000641C102CFFF444AFBDE8F88F00040140A4
:1009400000001110001002400000014000080140AA
:10095000000C014000100140001401400C04014053
:100960008068084000D0012070470AB101617047DB
:100970000904FBE7014800687047000034000020CC
:1009800010B5040008D02068C168C943C90705D163
:10099000C068C043800701D4012010BD607B20B92E
:1009A00000202073204600F018F8022060732168B0
:1009B00045F25550086020684168626821F00701DF
:1009C0001143416020688168A2686FF30B011143F5
:1009D000816001206073002010BD70472DE9F04157
:1009E0000446007B01280AD001262673022060738A
:1009F000FFF7C0FF054600274FF47A780BE002208E
:100A0000BDE8F081FFF7B6FF401B404503D9032046
:100A100060732773F4E72068C068C0438007F1D58E
:100A200021684AF6AA200860667327730020E7E76A
:100A3000017B01290FD001210222427303684CF689
:100A4000CC421A6003684AF6AA221A604173002158
:100A50000173084670470220704700000248016891
:100A6000491C01607047000034000020074810B5A1
:100A7000016841F010010160032000F091F80020AE
:100A800000F006F800F016F8002010BD002002402B
:100A900010B5044600F05AF94FF47A71B0FBF1F04A
:100AA00000F09AFC00222146501E00F059F8002068
:100AB00010BD00001D4808B5816941F00101816148
:100AC000806900F001000090032000F069F8002226
:100AD00011466FF00B0000F043F8002211466FF052
:100AE0000A0000F03DF8002211466FF0090000F006
:100AF00037F800221146501F00F032F8002211464C
:100B0000101F00F02DF800221146901E00F028F86A
:100B100000221146501E00F023F80548416821F0DC
:100B2000E06141F00071416008BD0000001002402A
:100B30000000014000F01F020121914040098000A7
:100B400000F1E020C0F88011704700F01F02012181
:100B500091404009800000F1E020C0F8001170478A
:100B6000F0B40E4B1B680C46C3F30223C3F1070518
:100B7000042D00D90425191D072901D2002300E006
:100B8000DB1E012606FA05F1491E214099409E40D0
:100B9000761E16403143F0BC01F0A0BB0CED00E026
:100BA000064900F0070208684FF6FF03184040EAC4
:100BB0000220034A10430860704700000CED00E07B
:100BC0000000FA052DE9F047DFF8708105460E4672
:100BD000D8F8000000F00700B0420CD2D8F800109E
:100BE00021F007013143C8F80010D8F8000000F0E8
:100BF0000700B04277D12878514C800705D560684E
:100C0000A96820F0F000084360602878C00759D038
:100C10006968012001290DD0022929D05FF0020363
:100C200093FAA3F2B2FA82F242F02002520904D0FF
:100C3000226803E04FF40033F2E7626A93FAA3F309
:100C4000B3FA83F303F01F03984002424BD060686D
:100C500020F0030008436060FFF78CFE69680746D8
:100C600041F2883001290DD00229814617D025E0B4
:100C70004FF00073D4E700BFFFF77CFEC11B49456E
:100C800001D918E081466068C0F381000128F3D1E2
:100C900018E000BFFFF76EFEC11B49450BD8606826
:100CA000C0F381000228F5D10CE000BFFFF762FE1F
:100CB000C11B494502D90320BDE8F087606810F0E8
:100CC0000C0FF3D1D8F80010404601F00701B142F3
:100CD0000BD9016821F0070131430160006800F081
:100CE0000700B04201D00120E6E72878400705D58B
:100CF0006068E96820F4E0600843606028780007D5
:100D000006D56068296920F4605040EAC10060603F
:100D100000F052F86168F02292FAA2F201F0F001BC
:100D2000B2FA82F2D140074A515CC84006490860D5
:100D30000020FFF7ADFE0020BEE7000000200240CB
:100D400000100240A43D0008000000200148006897
:100D50007047000000000020084809490068496801
:100D60004FF4E06292FAA2F201F4E061B2FA82F288
:100D7000D140044A515CC840704700000000002088
:100D800000100240B43D000808480949006849685D
:100D90004FF4605292FAA2F201F46051B2FA82F278
:100DA000D140044A515CC840704700000000002058
:100DB00000100240B43D000810B519A385B00FCB58
:100DC0008DE80F001AA01B4B006804905A681A485F
:100DD00002F00C0104291DD008291BD14FF4701416
:100DE00094FAA4F402F47011B4FA84F4E140D2034A
:100DF0001DF8011010D55A684FF4003393FAA3F38D
:100E000002F40032B3FA83F3DA4004AB9A5CB0FB2D
:100E1000F2F0484305B010BD08484843FAE7000027
:100E200002030405060708090A0B0C0D0E0F10102B
:100E3000010200000010024000127A0000093D008B
:100E40002DE9F84F04460078F74DC0074FF0010632
:100E500025D068687704C0F38100012807D068684E
:100E6000C0F3810002281BD16868C00318D597FA27
:100E7000A7F0B0FA80F040F02000400901D02868C7
:100E800000E0686A97FAA7F1B1FA81F101F01F0159
:100E900006FA01F108425ED0606800287CD05AE072
:100EA0006068B0F5803F0BD010B1B0F5A02F11D025
:100EB000286820F480302860286820F4802002E030
:100EC000286840F480302860606828B3FFF752FD3E
:100ED00080460BE0286840F480202860F0E700BFDF
:100EE000FFF748FDA0EB0800642871D897FAA7F037
:100EF000B0FA80F040F02000400901D0286800E0FE
:100F0000686A97FAA7F1B1FA81F101F01F0106FAB8
:100F100001F10842E4D01EE0FFF72CFD804605E019
:100F2000FFF728FDA0EB08006428DED897FAA7F0A9
:100F3000B0FA80F040F02000400901D0286800E0BD
:100F4000686A97FAA7F1B1FA81F101F01F0106FA78
:100F500001F10842E4D12078DFF8D08280074FF019
:100F600000094FF002075BD568684FF0F80B10F0EE
:100F70000C0F07D06868C0F3810002281CD1686894
:100F8000C00319D497FAA7F0B0FA80F040F020001F
:100F9000400902D0286801E08BE0686A97FAA7F15F
:100FA000B1FA81F101F01F0106FA01F108422CD0DB
:100FB000206901287DD128E0206990B396FAA6F037
:100FC000B0FA80F048F82060FFF7D4FC824607E0D2
:100FD00011E100BFFFF7CEFCA0EB0A00022884D885
:100FE00097FAA7F0B0FA80F040F02000400901D055
:100FF000286800E0686A97FAA7F1B1FA81F101F078
:101000001F0106FA01F10842E4D028689BFAABF20E
:101010006169B2FA82F220F0F8009140084328603A
:1010200025E0FFE796FAA6F1B1FA81F148F82190A0
:10103000FFF7A0FC824605E0FFF79CFCA0EB0A004E
:101040000228CCD897FAA7F0B0FA80F040F0200040
:10105000400901D0286800E0686A97FAA7F1B1FA60
:1010600081F101F01F0106FA01F10842E4D1207874
:1010700000076ED5A069B8B396FAA6F0B0FA80F072
:1010800008EB8000C0F88064FFF774FC824605E03E
:10109000FFF770FCA0EB0A000228A0D897FAA7F08F
:1010A000B0FA80F040F06000B6EB501F02D1286823
:1010B0000CE062E197FAA7F0B0FA80F040F060002F
:1010C000B7EB501F01D1286A00E0686A97FAA7F1D0
:1010D000B1FA81F101F01F0106FA01F21042D7D0F6
:1010E0000120FFF753FB34E0FFE796FAA6F1B1FACF
:1010F00081F108EB8101C1F88094FFF73BFC824647
:1011000006E000BFFFF736FCA0EB0A00022872D809
:1011100097FAA7F0B0FA80F040F06000B6EB501FED
:1011200001D128680BE097FAA7F0B0FA80F040F000
:101130006000B7EB501F01D1286A00E0686A97FA97
:10114000A7F1B1FA81F101F01F0106FA01F2104294
:10115000D8D12078400765D5E86940F08050E86133
:10116000E869DFF8CCB000F080500090DBF80010A8
:1011700041F48071CBF80010FFF7FCFB824605E0DC
:10118000FFF7F8FBA0EB0A00642834D8DBF8000076
:10119000C005F5D5E06801280AD008B1052813D0AC
:1011A000286A20F001002862286A20F0040002E08A
:1011B000286A40F001002862E06841F2883B90B361
:1011C000FFF7D8FB82460BE0286A40F00400286253
:1011D000EEE700BFFFF7CEFBA0EB0A0159450AD8A6
:1011E00097FAA7F0B0FA80F040F04000B6EB501F3D
:1011F00002D128680CE0A3E097FAA7F0B0FA80F0DB
:1012000040F04000B7EB501F01D1286A00E0686A47
:1012100097FAA7F1B1FA81F101F01F0206FA02F183
:101220000842D7D031E005E0001002400000424201
:1012300000700040FFF79EFB824605E0FFF79AFB37
:10124000A0EB0A0159457BD897FAA7F0B0FA80F0D5
:1012500040F04000B6EB501F01D128680BE097FA30
:10126000A7F0B0FA80F040F04000B7EB501F01D17A
:10127000286A00E0686A97FAA7F1B1FA81F101F0F3
:101280001F0206FA02F10842D8D1E06980B369680A
:10129000C1F38101022970D04FF080714F00022804
:1012A000484609D091FAA1F1B1FA81F148F821003C
:1012B000FFF760FB044669E08A4691FAA1F1B1FAB2
:1012C00081F1C14648F82100FFF754FB804605E054
:1012D000FFF750FBA0EB0800022854D897FAA7F0BC
:1012E000B0FA80F040F02000400902D0286801E008
:1012F00061E0686A97FAA7F1B1FA81F101F01F0184
:1013000006FA01F10842E3D1206AB0F5803F05D129
:101310006868A16820F4003008436860D4E90801D7
:101320000843696821F47411084368609AFAAAF0C6
:10133000B0FA80F049F82060FFF71CFB044606E095
:1013400021E000BFFFF716FB001B02281BD897FA0D
:10135000A7F0B0FA80F040F02000400901D02868E2
:1013600000E0686A97FAA7F1B1FA81F101F01F0174
:1013700006FA01F10842E5D01DE01EE0FFF7FAFA97
:10138000001B022802D90320BDE8F88F97FAA7F0C6
:10139000B0FA80F040F02000400901D0286800E059
:1013A000686A97FAA7F1B1FA81F101F01F0106FA14
:1013B00001F10842E2D10020E6E70120E4E74FF026
:1013C000E0210428086903D020F004000861704778
:1013D00040F00400FAE7704710B5401EB0F1807F7E
:1013E00001D3012010BD4FF0E02460610F21601790
:1013F00000F074FF0020A06107202061002010BDD4
:1014000010B5FFF7E8FF10BD7047704730B590F892
:101410003820012A20D0012280F83820022380F8C9
:10142000393003685C6824F070045C6003685C68B1
:101430000D682C435C6003689C6824F080049C6009
:1014400003689C6849680C439C6080F8392000213F
:1014500080F83810084630BD022030BD10B50400B9
:1014600003D094F8390010B107E0012010BD00202E
:1014700084F83800204600F00DF8022084F8390086
:10148000211D206801F000F9012084F839000020B6
:1014900010BD000008B501681D48B1F1804F11D0A2
:1014A0001C4A91421DD1C16941F00201C161C0696C
:1014B000002200F00200009011461D20FFF750FBB3
:1014C0001D201FE0C16941F00101C161C069002216
:1014D00000F00100009011461C20FFF741FB1C208A
:1014E00010E00D4A914211D1C16941F00401C1617E
:1014F000C069002200F00400009011461E20FFF792
:101500002FFB1E20BDE80840FFF71FBB08BD0000F1
:101510000010024000040040000800400168CA6852
:1015200042F00102CA600068016841F001010160F7
:10153000002070470168CA6822F00102CA60006892
:10154000016A41F21112114207D1016A921011424F
:1015500003D1016821F0010101600020704770B5DE
:10156000044690F83800012817D0012584F8385037
:10157000022084F839002068826822F0770222F481
:101580007F4282600868502837D00DDC202859D06F
:1015900005DC88B3102841D151E0022070BD30280D
:1015A00053D040283AD13FE060282ED070280BD08D
:1015B000B0F5805F03D0B0F5005F2FD110E0206858
:1015C000816821F0070115E0CB68D1E9012120688D
:1015D00001F097F82168886840F0770088601DE086
:1015E000CB68D1E90121206801F08BF8206881687F
:1015F00041F48041816011E01EE0CA6849682068BA
:1016000001F034F95021206806E0CA684968206872
:1016100001F03DF96021206801F07DF884F839502F
:10162000002084F8380070BDCA684968206801F05D
:101630001DF940212068EFE700212068ECE7102128
:101640002068E9E720212068E6E730212068E3E709
:10165000704770B50446006801694FF00005C94342
:10166000890715D4C168C943890711D4E91E0161EE
:1016700001202076206880698007204602D0FFF78D
:10168000E7FF04E000F0D5F8204600F073F9257676
:1016900020680169C943490717D4C168C94349078C
:1016A00013D46FF004010161022020762068806964
:1016B00010F4407F204602D0FFF7CAFF04E000F09C
:1016C000B8F8204600F056F9257620680169C9432C
:1016D000090716D4C168C943090712D46FF008017D
:1016E0000161042020762068C0698007204602D06E
:1016F000FFF7AEFF04E000F09CF8204600F03AF956
:10170000257620680169C943C90617D4C168C94351
:10171000C90613D46FF010010161082020762068FB
:10172000C06910F4407F204602D0FFF791FF04E02B
:1017300000F07FF8204600F01DF925762068016949
:10174000C943C90708D1C168C943C90704D1891E63
:101750000161204600F052F920680169C943090679
:1017600009D4C168C943090605D46FF0800101613D
:101770002046FFF749FE20680169C943490609D49C
:10178000C168C943490605D46FF040010161204694
:1017900000F03EF920680169C94389060BD4C1688D
:1017A000C943890607D46FF0200101612046BDE8D6
:1017B0007040FFF72ABE70BD1FB50068054988421A
:1017C00007D1022000900190039069460248FEF77D
:1017D000E9FF1FBD00040040000C014070B5044645
:1017E00090F8380001280DD0012584F838500220E7
:1017F00084F8390042B1042A0AD0082A0CD00C2AF5
:1018000011D10DE0022070BD206800F08DFF0AE0CC
:10181000206800F0B1FF06E0206800F0D9FF02E088
:10182000206801F001F884F83950002084F838006D
:1018300070BD704710B5040003D094F8390010B1A2
:1018400007E0012010BD002084F83800204600F099
:101850000CF8022084F83900211D206800F014FFE4
:10186000012084F83900002010BD704770B504468F
:1018700090F838000D4601280DD0012684F8386014
:10188000022084F8390042B1042A18D0082A2AD04C
:101890000C2A4DD139E0022070BD206800F044FFD1
:1018A0002068816941F0080181612068816921F027
:1018B00004018161206881692A69114311E020686F
:1018C00000F05AFF2068816941F40061816120685D
:1018D000816921F480618161206881692A6941EA16
:1018E0000221816124E0206800F072FF2068C16954
:1018F00041F00801C1612068C16921F00401C161A2
:101900002068C1692A69114311E0206800F08CFF4A
:101910002068C16941F40061C1612068C16921F496
:101920008061C1612068C1692A6941EA0221C161FF
:1019300084F83960002084F8380070BD10B50400C8
:1019400003D094F8390010B107E0012010BD002049
:1019500084F83800204600F00CF8022084F83900A2
:10196000211D206800F090FE012084F8390000203D
:1019700010BD70477047000010B504460068012292
:1019800000F0B4FE07492068884203D1416C41F45D
:10199000004141642068016841F0010101600020BC
:1019A00010BD0000002C014010B504460068002264
:1019B00000F09CFE104B41F2111120688A109842F1
:1019C00009D1036A0B4206D1036A134203D1436C67
:1019D00023F4004343642068036A0B4206D1016A82
:1019E000114203D1016821F001010160012084F856
:1019F0003900002010BD0000002C014000680349A0
:101A0000884201D101F060BF70470000000800402B
:101A1000704710B504460068416921F0C00141617A
:101A2000206B08B1FEF7FCFC606B08B1FEF7F8FC18
:101A3000012084F83900002010BD704738B50446F5
:101A400000680168C26811F0010F02F4807204D0CE
:101A50001AB1E16B41F00101E1630168C1F3400299
:101A6000416901F0010122B119B1E26B42F00402B7
:101A7000E2630268C2F3800222B119B1E26B42F064
:101A80000202E2630268C2F3C00222B119B1E16B43
:101A900041F00801E1630168C068C1F3401100F042
:101AA000200019B110B1204600F04EFF20680168F7
:101AB000C068C1F3C01100F0800019B110B1204618
:101AC00001F04EF821680868CA68C0F3801002F07F
:101AD0004002012570B16AB1CA68204622F0400276
:101AE000CA6094F83910322911D080F8395000BFFB
:101AF00000F098F9E06B002808D020680168406881
:101B0000009084F839502046FFF797FF38BD222116
:101B100080F83910ECE770B5040004D094F839006F
:101B2000002510B106E0012070BD84F83850204631
:101B300000F020F8022084F839002068C16821F400
:101B40000051C160204600F053FF2068016921F474
:101B5000904101612068416921F02A0141612068BA
:101B6000C16841F40051C160E563012084F8390087
:101B7000002070BD2DE9F043044603685148DFF8AA
:101B800040C10221032206150025802785B04FF0B1
:101B90001008634545D1836943F4804383618069BC
:101BA000DFF8249100F4804004900802CDE90001A0
:101BB000039269464846FEF7F5FDCDE900656946A2
:101BC00048460295FEF7EEFD414E4048C6E9000545
:101BD000C6E9025735617561B5613046F561FEF7BA
:101BE00081FD08B1FEF710FC66637462384E374819
:101BF00038361438C6E9025735617561B561F5614B
:101C0000C6E900083046FEF76DFD08B1FEF7FCFBA3
:101C100026630022114625207462FEF7A1FF2520CD
:101C200049E0DFF8B0C0634547D1C36943F480237E
:101C3000C361C069CDE9006100F48020CDE90320D3
:101C4000254E69463046FEF7ADFDF014CDE900059E
:101C5000694630460295FEF7A5FD1D4E1B487036BD
:101C60003C38C6E9025735617561B561F561C6E971
:101C700000083046FEF736FD08B1FEF7C5FB2663C7
:101C80007462134E1148A8362838C6E90005C6E923
:101C9000025735617561B5613046F561FEF722FD89
:101CA00008B1FEF7B1FB666300221146272074627B
:101CB000FEF756FF2720FEF748FF05B0BDE8F0838A
:101CC0000038014000100240000801405800024066
:101CD0000403002000480040000C014070B5044699
:101CE00090F83900012801D0122832D169B362B3CB
:101CF00094F8380001282CD0012084F83800A16223
:101D0000A2850025E56394F8390012281FD022200F
:101D100084F83900636B10489862636B0F48D8628F
:101D2000636B0F48186308461346666B21680246CA
:101D30003046091DFEF7FEFC2068416941F0400174
:101D4000416184F83850002070BD012070BD322000
:101D5000DEE7022070BD0000D12800080729000836
:101D6000B328000810B5044600680749884201D12D
:101D700001F0B0FD05492068884203D1BDE810405C
:101D800000F06ABB10BD0000003801400048004070
:101D90007047000070B5044690F83900012801D062
:101DA000222836D181B37AB394F83800012830D094
:101DB000012084F838002162A284E2840025E563D2
:101DC00094F83900222822D05FF0120084F83900FC
:101DD000236B11489862236B1048D862236B10481C
:101DE000186326681346321D206BFEF7A3FC21689A
:101DF0006FF0400008602068416941F08001416156
:101E000084F83850002070BDFFE70120FBE7322046
:101E1000DCE70220F7E70000112900083F2900084D
:101E2000B328000810B5044600680749884201D16C
:101E300001F056FD05492068884203D1BDE81040F5
:101E400000F024BB10BD00000038014000480040F5
:101E50007047FEE710B5012211460348FEF785FDE5
:101E600002490120087010BD000C01401400002040
:101E700010B5002201210348FEF777FD024900203A
:101E8000087010BD000C01401400002010B50122A4
:101E900080210348FEF769FD02490120487010BD0A
:101EA000000801401400002010B5002280210348E2
:101EB000FEF75BFD02490020487010BD000801409C
:101EC000140000200648002141608160C16001616A
:101ED000C161816141610121017041708170704770
:101EE000140000202DE9F041464CDFF81C8140F23F
:101EF00026262078012520B1012804D0022807D108
:101F00000EE0002200E0012201214046FEF72DFDF7
:101F100060783E4F98B1012813D0022816D124E0F2
:101F20006068FEF772FAE168884201DB2570EFE72E
:101F300090FBF6F106FB11003228E4DCE1E7002219
:101F400000E0012280213846FEF70FFDA07802282C
:101F50001AD0032835D0042805D1A069FEF755FA18
:101F60006169884244D2BDE8F081A068FEF74DFA6D
:101F70002169884201DB6570E8E790FBF6F106FB1A
:101F800011003228DDDCDAE7A069FEF73EFA61696C
:101F90008842E8D30C211E48FFF706FD00220221EB
:101FA0004046FEF7E2FCE069401EE061002806DDE5
:101FB000FEF7E0FCA061C8206061032016E0A57078
:101FC000D1E7A069FEF721FA61698842CBD3E069C5
:101FD000401EE06100280BDD0C210D48FFF7E4FCFA
:101FE000FEF7C8FCA061642060610220A070BAE71F
:101FF0000C210748FFF7D8FC002202214046FEF7DB
:10200000B4FCDCE714000020000C01400008014093
:1020100044010020154808B5416941F001014161C2
:102020004069002200F00100009011460C20FEF7EC
:1020300097FD0C20FEF789FD002211460D20FEF7CA
:102040008FFD0D20FEF781FD002211460E20FEF7C8
:1020500087FD0E20FEF779FD002211460F20FEF7C6
:102060007FFDBDE808400F20FEF76FBD0010024065
:102070002DE9F041324886B0816941F0100181615B
:10208000816901F010010491816941F020018161B1
:10209000816901F020010491816941F004018161AD
:1020A000816901F004010491816941F008018161B5
:1020B0008069DFF8908000F0080004900122802100
:1020C0004046FEF752FC204F012211463846FEF7EB
:1020D0004CFC78140025CDE90005012469460294E2
:1020E0001A48FEF75FFB7020CDE9000569464046BF
:1020F0000295FEF757FB8020CDE9000402266946D1
:1021000003964046FEF74EFB009469463846039618
:102110000194FEF747FB4FF2F830CDE90005694620
:1021200002943846FEF73EFB4FF41940CDE9000516
:10213000694602944046FEF735FB06B0BDE8F081E3
:102140000010024000080140000C01400010014056
:10215000094810B5074901600021416040F6FF7150
:102160008160FEF70DFC002803D0BDE81040FEF7AB
:102170004BB910BD00300040E403002010B51248F8
:1021800086B04FF080410024C0E900148460C46030
:102190000461FFF763F908B1FEF736F94FF4805098
:1021A000009069460848FFF7DAF908B1FEF72CF904
:1021B000049404A904480594FFF728F9002801D0E5
:1021C000FEF722F906B010BD0801002010B51F4827
:1021D0008EB01D49016048210024C0E901144FF46C
:1021E000B971C0E90314FFF739F908B1FEF70CF92A
:1021F0004FF48050079007A91448FFF7B0F908B1D1
:10220000FEF702F91148FFF799FB08B1FEF7FCF859
:102210000B940BA90D480C94FFF7F8F808B1FEF7E2
:10222000F3F860200090B920CDE901040C22694642
:1022300006480494FFF71AFB08B1FEF7E5F80348D7
:10224000FFF7BAFA0EB010BD0004004044010020B0
:1022500030B51149114887B08C14002580E8320050
:10226000C0E90345FFF7FAF808B1FEF7CDF8694673
:102270000A480094FFF773F908B1FEF7C5F8049512
:1022800004A906480595FFF7C1F8002801D0FEF71C
:10229000BBF807B030BD00000008004080010020FE
:1022A0000C4810B50A4901604FF4E131416000214A
:1022B00081600C22C160C0E904128161C161FFF735
:1022C0002AFC002803D0BDE81040FEF79DB810BDE1
:1022D00000480040C4020020FEE770470907090ECD
:1022E000002806DA00F00F0000F1E02080F8141D4D
:1022F000704700F1E02080F800147047704700003C
:102300002DE9F041364C0627364EA07800250728E7
:1023100061D2DFE800F021560456141C1C0030681E
:102320000168CA6842F01002CA602D4920220C31AF
:10233000FFF7D4FCFEF71EFBA060032003E0FDF7CF
:1023400015FF10B10520A07045E0A77043E0FEF72F
:1023500011FB6060A5703EE032216068FDF75BFF15
:1023600070B31F487C3001264068008820B10128E6
:102370001BD002281ED11AE01948657022786C30F3
:10238000A0F1100142B10A7B521CD2B20A73042A96
:1023900010D3257005730DE0027B521CD2B202737C
:1023A000042A07D326700D7304E0667001E0022052
:1023B0006070257000F078F8A670FEF7DBFAA06078
:1023C00009E04FF4FA71A068FDF725FF18B13068F5
:1023D000FFF71FFBB9E7BDE8F04100F01BBC0000B0
:1023E000F40300201000002070B50C461849194E67
:1023F00000250860B570012030707570F570FEF72B
:10240000B9FA706006F16C00A0F110010573A0F13B
:1024100020020D73A31DC2E9003404F114020A6006
:10242000921C4A60911D0160891C41601030891D19
:102430000160891C4160891C8160891CC160891C04
:102440000161891C4161891D4434C0E9061470BDD5
:1024500010000020F40300200A4808B5016808684D
:10246000C26822F01002C26007488278032A06D0B0
:1024700006228270086801684068009008BD042246
:10248000F7E7000010000020F403002004488178E2
:10249000012902D00621817070470221FBE700006C
:1024A000F403002070470000F0B43B48AB21002546
:1024B0000170BA214170A0F12C03857093F801C01E
:1024C0002946BCF1000F0CD07C33BCF1010FD3E9DD
:1024D0000414D3E902760ED0BCF1020F24D00221FD
:1024E0004EE01A78012A04D01022C270017106222F
:1024F00041E01522F9E71222C270092202713A78EE
:102500004271327882710978C171002121F0010293
:10251000A35A1E0A4318891C1E72A25CC9B25A72C1
:102520000629F3D30F2226E01322C270192202716A
:102530003A784271327882710978C1715FF0000196
:1025400021F00106A25B170A4218891C1772A65DCA
:10255000C9B256720629F3D39A69002121F0010409
:10256000135B1E0A4318891C9E73145DC9B2DC7389
:102570001029F3D31F220221435C5D40491CC9B2DC
:10258000531E9942F8DB1044034900F8015C0348EC
:102590000068F0BCFFF7FEBB200400201000002004
:1025A00010B5FEF75BFABDE81040FEF729BF30B565
:1025B0008FB00B20012100904FF480300024049153
:1025C0000691CDE901040225CDE907504FF4E01052
:1025D00009906846FEF734FC00B1FEE70F20CDE914
:1025E0000A054FF48060CDE90C4002210AA80E9440
:1025F000FEF7E8FA00B1FEE7FEF7A8FB4FF47A71A8
:10260000B0FBF1F0FEF7E8FE0420FEF7D8FE002252
:102610001146501EFEF7A4FA0FB030BD0D480168F8
:1026200041F00101016041680B4A114041600168BD
:102630000A4A11400160016821F48021016041686B
:1026400021F4FE0141604FF41F0181600449C00381
:1026500008607047001002400000FFF8FFFFF6FE20
:1026600008ED00E00148FEF7F4BF0000080100207B
:102670000148FEF7EEBF0000440100200148FEF7CC
:10268000E8BF000080010020F0B50268144B154C33
:10269000154D4FF08047984205D0B84203D0A04274
:1026A00001D0A84203D122F070064A683243984212
:1026B00005D0B84203D0A04201D0A84203D122F4F1
:1026C0004074CA68224302608A68C2620A688262F1
:1026D000984201D10969016301214161F0BD000007
:1026E000002C0140000400400008004010B5012308
:1026F000046A8B409C430462036A8A40134303626A
:1027000010BD10B5846842EA032224F47F440A43D2
:102710002243826010BD826822F070020A4342F0B8
:10272000070181607047000030B5026A22F00102A3
:102730000262026A4368846924F073050C682C43C2
:1027400022F002058A682A430A4DA8420BD122F0E2
:102750000805CA6823F440732A434D6922F0040235
:102760001D438B692B434360846149684163026266
:1027700030BD0000002C014030B5026A22F010028A
:102780000262026A436884690D6824F4E64444EAFC
:1027900005248D6822F0200242EA05120B4DA84262
:1027A0000ED1CD6822F0800242EA05124D6923F471
:1027B000406343EA85038D6922F0400243EA8503C2
:1027C0004360846149688163026230BD002C01402E
:1027D00030B5026A22F480720262036A4268C469F8
:1027E00023F4007324F073050C682C438D6843EACE
:1027F00005230C4DA8420ED1CD6823F4006343EAB3
:1028000005234D6922F4405242EA05128D6923F4F2
:10281000806342EA05124260C4614968C163036291
:1028200030BD0000002C014030B5026A22F4805215
:102830000262046A4268C3690D6823F4E64343EA0E
:1028400005238D6824F4005444EA0534064DA8425B
:1028500004D14D6922F4804242EA85124260C3618C
:1028600049680164046230BD002C014010B5036A60
:10287000046A24F001040462846924F0F00444EA48
:10288000021423F00A020A438461026210BD10B5EB
:10289000036A23F0100303628369046A23F470431C
:1028A00043EA023224F0A00343EA0111826101628B
:1028B00010BD10B5406A0021C185C184012180F896
:1028C0003910C16B41F01001C163FFF7B6F810BDBC
:1028D00010B50146406A0968096889060ED40021CE
:1028E000C18501684A6922F040024A6190F83910B6
:1028F000322906D05FF0010180F83910FFF732FA73
:1029000010BD1221F8E710B5406AFFF741FA10BD7B
:1029100010B50146406A0968096889060CD400218F
:10292000C18401684A6922F080024A610068C16876
:1029300041F04001C16010BDFFF774FA10BD10B541
:10294000406AFFF785FA10BD10B590F839102229BA
:1029500003D0322901D0022010BD8168B1F5805F1B
:1029600011D00169002901681FD0496801F07F0377
:10297000816A4A1C82620B70C18D491E0904090CD0
:10298000C18518D030E00269816A002A0268526865
:1029900005D0D2B20A80816A491C8162ECE7C2F399
:1029A00008020A80816A891CF7E74A68816A4B1C21
:1029B00083620A70E0E70168CA6822F02002CA60F8
:1029C00090F83910322911D00168CA6822F4807257
:1029D000CA6001684A6922F001024A615FF00101A0
:1029E00080F83910FFF7BEF9002010BD1221F7E77B
:1029F0002DE9F041044600680169E26821F4405184
:102A0000114301612169A068084361690843216895
:102A1000CA6841F20C639A430243CA602068416964
:102A2000A26921F44071114341614C492068642539
:102A3000322688423CD1FEF7A7F900EBC00101EB3A
:102A4000001061688900B0FBF1F7FEF79DF900EB1B
:102A5000C00101EB00106168B0468900B0FBF1F0E5
:102A6000B0FBF5F06FF01801484307EB800106EB6F
:102A70000110B0FBF5F000F0F006FEF785F900EB71
:102A8000C00101EB001061688900B0FBF1F0B0FB00
:102A9000F5F006EB0016FEF777F900EBC00101EB4D
:102AA000001061688900B0FBF1F7FEF76DF93BE0BB
:102AB000FEF752F900EBC00101EB001061688900DC
:102AC000B0FBF1F7FEF748F900EBC00101EB001095
:102AD0006168B0468900B0FBF1F0B0FBF5F06FF033
:102AE0001801484307EB800106EB0110B0FBF5F03D
:102AF00000F0F006FEF730F900EBC00101EB00102A
:102B000061688900B0FBF1F0B0FBF5F006EB001650
:102B1000FEF722F900EBC00101EB001061688900AB
:102B2000B0FBF1F7FEF718F900EBC00101EB001064
:102B300061688900B0FBF1F0B0FBF5F06FF01801AF
:102B4000484307EB800108EB0110B0FBF5F021686A
:102B500000F00F0030448860BDE8F081003801408B
:102B600090F83910122903D0322901D00220704781
:102B70008168B1F5805F016A0BD04A1C026202686D
:102B800009785160C18C491E0904090CC1840ED01A
:102B900017E009880268C1F3080151600169002942
:102BA000016A02D0491C0162ECE7891CFBE701685D
:102BB000CA6822F08002CA600068C16841F0400122
:102BC000C1600020704700000148FEF737BF0000D9
:102BD000840200200D4808B501680868C968C0F380
:102BE000001001F0100158B151B1094800680168A6
:102BF000406800900548FEF70CFF0448FFF7B2F864
:102C0000BDE808400148FEF719BF0000C4020020DB
:102C1000840200202DE9F05F964C012704F15C0549
:102C2000207804F10C09012819D16078B8B9A0788E
:102C3000052814D1286807806A6899F80510118062
:102C4000B9F806106A6849BA5180B9F8080069688D
:102C500040BA8880FDF78EFEA860FFF709F9286862
:102C6000A84640F6B83B0088002580B14646594644
:102C7000D8F80800FDF7CFFA48B1306805807068D1
:102C800005807068458070688580FFF7E3F8794EAD
:102C900020786C36B8B96078A8B9A078052812D128
:102CA00070680580B9F80510726849BA5180B9F8A2
:102CB0000700716840BA888030680780FDF75AFEC7
:102CC000B060FFF7F1F83068008870B15946B0681D
:102CD000FDF7A1FA48B1306805807068058070681A
:102CE000458070688580FFF7D1F8D8F8000041462C
:102CF0004FF0020802885F484FF4FA7A4C301AB15C
:102D00003268128822B126E031680988A1B929E029
:102D1000026817804A68436812881A804A684368C4
:102D200052885A804A68436892889A80096809885C
:102D300089B93168098871B10268A2F800807168A8
:102D400042680988118071684268498851807168B9
:102D5000406889888180E07880B9E7705046FDF747
:102D600025FA0BE041680D8041684D8041688D80F7
:102D700000680580E078012800D1E5703D4E20789C
:102D80007C36E0BB607801280AD1A07805280BD0FA
:102D9000062823D0316804200880FDF7EBFD30625F
:102DA000607802282CD035E0002049460A1820F02F
:102DB000010CB2F80720F369801C52BAC0B223F8A4
:102DC0000C201028F2D3316805200880FDF7D2FDD1
:102DD0003062E7705046FDF7E9F90DE096F82400FF
:102DE000401CC0B286F82400062813D331680620A0
:102DF0000880FDF7BFFD306270680580D0E709E00C
:102E0000A07805280AD0062813D030680780FDF77F
:102E1000B1FD306270680088D8B11CE03168A1F85B
:102E20000080FDF7A7FD3062E7705046FDF7BEF960
:102E30000DE096F82400401CC0B286F82400062855
:102E4000E8D3316803200880FDF794FD3062706894
:102E5000058086F8245030680088002807D059463D
:102E6000306AFDF7D8F9002801D030680580BDE848
:102E7000F09F0000F4030020FEE702E008C8121FE4
:102E800008C1002AFAD170477047002001E001C153
:102E9000121F002AFBD1704770B508460024154662
:102EA000012181F310880A4A0A21D170072229469C
:102EB00000F09CFE012805D144F6206000F0C8FE19
:102EC000012800D00324002080F31088204670BD24
:102ED000E40000202DE9F04107460025164688460B
:102EE000012080F310880D4CA088032804D3A1880A
:102EF000A06800F0DCFC30B10525002080F31088CC
:102F00002846BDE8F081A06810F8011B3970A1883F
:102F1000891E3180C8F80000EFE70000E4000020BF
:102F200070B503460025012080F31088104C6078AE
:102F300028B10525002080F31088284670BD491E61
:102F40000126E1600846E6800B70E1881144E180CB
:102F5000E18800F0ACFC0146E088A2680244401C15
:102F6000E080117026700121002000F0D5FCE1E71F
:102F7000E400002010B5012080F31088002100F04B
:102F8000CBFC04490020487080F31088BDE8104055
:102F900000F012BEE400002010B5012080F310887C
:102FA0000021084600F0B8FC00F00CFD002080F382
:102FB000108810BD70B5064D00242878012802D075
:102FC0000624204670BD2869804700202870F8E755
:102FD0003800002070B50C460988002505292FD13E
:102FE000417840F2CF760A0281781143C278491CB9
:102FF0001302027989B21A43531EB34220D200232E
:103000002380012300F8013B2688761C2680560782
:1030100003D003EBD203DEB201E0C2F3C70600F82F
:10302000016B23885B1C2380002300F0FDFA18B19C
:1030300000F024FC054604E020883044208000E0B5
:103040000325284670BD70B50C4609880025052962
:103050002FD1417840F2CF760A0281781143C278AD
:10306000491C1302027989B21A43531EB34220D27B
:1030700000232380022300F8013B23885B1C23806C
:10308000530704D0012303EBD203DEB201E0C2F305
:10309000C70600F8016B23885B1C238000F0C6FA8A
:1030A00018B100F0EBFB054604E020883044208096
:1030B00000E00325284670BD70B50C46098800263F
:1030C000052925D1417805790A0281781143491CE7
:1030D0006A1E89B27C2A1BD800222280032200F8B3
:1030E000012B22880023521C22806A0000F8012B49
:1030F0002288521C22802A4600F09AFA18B100F069
:10310000BDFB064605E0208800EB4500208000E07E
:103110000326304670BD70B50C4609880026052987
:1031200025D1417805790A0281781143C27845EAB0
:1031300002256A1E7C2A1AD200222280042200F86C
:10314000012B2288521C22806A0000F8012B228861
:10315000521C22802A4600F0C5FA18B100F08EFBFE
:10316000064605E0208800EB4500208000E00326AD
:10317000304670BD2DE9F0410446088800270D4611
:103180000A2842D3607826790102A078227A08437F
:10319000401C1FFA80F8E07846EA00266079731E2A
:1031A0000102A0790843401C81B2E0797C2B42EAFD
:1031B0000022607A28D83AB3792A25D8B0EB420F9A
:1031C00022D1012304F10A0000F032FA98B900215B
:1031D0002980172121702988601C491C29807100D1
:1031E00000F8011B29880023491C298032464146EA
:1031F00000F01EFA18B100F041FB074605E02888F0
:1032000000EB4600288000E003273846BDE8F08147
:1032100070B5064C0D4606492288401CFCF782FF1B
:103220002088401C2880002070BD0000F400002091
:103230009804002038B50988002405290BD141786D
:103240000A0281781143491C027989B21AB9C278FD
:10325000FF2A03D012B10324204638BD00228DF886
:103260000120C078FF280CD08DF8002001231A46D9
:10327000684600F0D9F90028EED000F0FFFA0446C5
:10328000EAE701208DF80000F0E710B50988002476
:10329000052902D00324204610BD417801230A02EB
:1032A0008178C01C1143491C89B21A4600F0C0F94C
:1032B0000028F0D000F0E2FA0446ECE72DE9F041F6
:1032C0000D4609880024052926D9417843790A0248
:1032D00081781143491C8EB2C178027942EA0122F9
:1032E000510704D0012101EBD201C9B201E0C2F3C0
:1032F000C701571EB7F5F66F0ED299420CD10123C4
:103300003146801D00F090F918B100F0B7FA04467C
:1033100003E00520288000E003242046BDE8F0817A
:1033200070B50D460988002406291DD341780A028C
:1033300081781143C278491C1302027989B21A4379
:103340004379561E772E0FD85606360E9E420BD165
:103350000123801D00F06CF918B100F08FFA0446CB
:1033600003E00520288000E00324204670BD000013
:103370002DE9F0411D46069B1746064641B1F72947
:1033800006D81E4C0846217100211EB1012E15D011
:1033900002252EE01A4A22611A4A62611A4AE26044
:1033A0001A4AC4E906211A4921621A4961621A4976
:1033B000A1622A46394600F099F812E0174A2261C4
:1033C000174A6261174AE260174AC4E906211749A1
:1033D0002162174961621749A1622A463946FFF7FF
:1033E0005BFD050005D100F0DFFB28B1667101200F
:1033F00020702846BDE8F0810325FAE73800002058
:10340000E93500080D360008853500083535000817
:10341000CD3C0008553D00082D3D0008752F0008E3
:10342000992F0008212F0008D52E0008ED3900083B
:10343000E93A0008C93A000838B52B4C207808B1A1
:10344000062038BD684600F0A1FB01284AD19DF84E
:103450000000E8B3012802D0022843D10FE0224A3D
:10346000A369921D911CC81F984788BB6078217979
:10347000884200D060BB022000F09EFB32E0A068D2
:103480000121194B0278A270E170002113F12C0385
:1034900013F8315065B1954207D103EBC1014A6879
:1034A0001149891D9047E07002E0491C1029EFDBAB
:1034B000607868B1E07880B10021E180A17841F0C6
:1034C0008002A1680A70E288521C92B2E28000E099
:1034D00008E08854E088401CE080D4E90213E288C8
:1034E00020799847002038BD3800002070B5084684
:1034F00000241546012181F310880822294600F096
:1035000075FB01280DD1B5F5964F01D9232003E0B5
:1035100007496800B1FBF0F080B200F099FB012888
:1035200000D00324002080F31088204670BD0000E6
:10353000A07F17002DE9F041074600251646884672
:10354000012080F310880D4CA088042804D3A188A2
:103550000B4800F0CBF930B10525002080F310882E
:103560002846BDE8F081064800783870A088C01E63
:1035700030800348401CC8F80000EEE7F800002047
:10358000B804002070B503460025012080F31088A0
:10359000134C6078012805D00525002080F31088A1
:1035A000284670BD491E0126A160084666800B7042
:1035B000618811446180618800F098F96188094A46
:1035C0005318491C61801870010A60880244401C2D
:1035D0006080117026700121002000F09DF9DCE769
:1035E000F8000020B804002010B5012080F31088F6
:1035F0000548002444702146012000F08DF900F0B8
:10360000E7F984F3108810BDF800002010B5012000
:1036100080F310880021084600F07EF900F0D2F90E
:10362000002080F3108810BD0120704701207047F2
:10363000F0B52A4C8E186588294CA94225D305F18E
:103640006407BE4221D8491B491E7BB1012B19D00A
:1036500040E000BF34F81130521E1B0A00F8013B55
:1036600014F8113000F8013B92B2491C002AF1D144
:1036700030E000BF30F8023B521E5BBA24F8113034
:1036800092B2491C002AF5D124E0A94224D2642E2A
:1036900022D8491E20D47BB1012B19D01AE000BFDB
:1036A00034F81130521E1B0A00F8013B14F8113097
:1036B00000F8013B92B2491C002AF1D10AE000BF98
:1036C00030F8023B521E5BBA24F8113092B2491C0A
:1036D000002AF5D10020F0BD0120F0BD040000203B
:1036E000BC01002070B5164B41F2111500241D805D
:1036F0006D005D8043F233359D8044F24445DD80AA
:1037000047F23055A94218D38D1847F23456B542C6
:1037100013D81D1F2D88491B0CE000BF33F8115032
:10372000521E2D0A00F8015B13F8115000F8015BDE
:1037300092B2491C002AF1D100E00124204670BD5C
:10374000080000208CB0FDF791F9FEF730FFFEF77E
:103750008FFCFEF75FFCFEF739FDFEF7A1FDFEF7DB
:1037600077FDFEF70BFDFEF7F3FCFCF765FD0600A9
:1037700001D0F72E00D9FEE7FCF760FD804600245B
:10378000FCF788FD012800D10124FCF783FD022805
:1037900000D10224FCF775FD00272A4D072804D02C
:1037A0002CB14FF48050A86002E0002C46D0AF60EE
:1037B000FCF7F8FD012842D04FF40050E860434682
:1037C0000322314600200094FFF7D2FDFFF7F2FB01
:1037D0001D491E48FEF708FEFEF774FB28221CA1B7
:1037E00001A8FCF79FFC184A002001A902EB400445
:1037F0000B5C401CA4F864302828F7DBFCF7FCFCC9
:10380000FEF736FBC820FCF7C1FFFEF723FBFEF7EF
:103810004BFBC820FCF7BAFFFEF738FBFCF7D8FCDF
:103820001548FDF705F900BFFFF706FEFEF768FD36
:10383000FEF758FB1048FDF7D1F8F5E7FEE7EF601B
:10384000BDE7000084020020BC010020C40200206B
:103850007A68616F727569203138373631333039A3
:10386000343636206C7967636F73636F2032303182
:10387000372D30392D323100E4030020002804D0E8
:10388000012803D0072803D0042070470220704786
:1038900006207047092801D8303004E0A0F10A0161
:1038A000052902D83730C0B2704730207047002257
:1038B00003E010F8013B1A44D2B2491E89B2F8D293
:1038C0005042C0B270470000014800680047000045
:1038D00060000020014800680047000058000020F8
:1038E00001480068004700005C00002070B5094DE9
:1038F000FF231A4605F5807606E000BF10F8014B5D
:1039000054402A5D5A40335D491E89B2F6D242EADC
:10391000032070BDBC3D000810B500280C464FF0D8
:103920000F0007D0FDF711F9012222492248FEF7C6
:10393000D5F901E0FDF7FEF8ACB31F481F49006B55
:103940000068884201D1022022E01C4914318842DB
:1039500001D120201CE019492831884201D14015AD
:1039600016E016493C31884202D14FF400500FE076
:1039700012495031884202D14FF4003008E00F491B
:103980006431884202D14FF4001001E04FF0007022
:103990000A49083948600E20FDF7D7F80848006842
:1039A000BDE810400047FFE7BDE810400E20FDF7DE
:1039B000C1B8000006010020840200200800024077
:1039C0005C0000200148FDF7B5BD0000800100202B
:1039D00005486FF001010268116100680021416231
:1039E0000148FDF79BBD000080010020F8B50027CD
:1039F000684600F0E9F8334C60780025012670B382
:103A0000012802D002285AD139E0FFF7E1FF9DF8E2
:103A100000003A2807D00D2808D0A0F1300109296C
:103A200007D8C8B20DE0A570A58048E002206070FC
:103A300045E0A0F14101052902D83738C0B200E0C5
:103A4000FF20A17811B1012939D10DE0A188FF290A
:103A500006D8A288A16800018854A6702FE025E04E
:103A60006570FFF7AFFF2AE0A288A16811440A78C9
:103A700002430A70A088401CA080A5701FE09DF83A
:103A80000000E178884207D1FFF79CFF65700120B4
:103A900000F092F8074612E03A2801D065700EE077
:103AA000A570A5806670FFF793FF08E09DF8000001
:103AB0003A2804D1FFF78CFFA580A57066703846C0
:103AC000F8BD0000E4000020064810B54178012947
:103AD00001D0022901D100214170FFF773FF0020BE
:103AE00010BD0000E400002070B5274C00262078AF
:103AF0003546052846D2DFE800F041030A3136009A
:103B00003A2000F097F802202070A5703AE0E08893
:103B1000F0B1A1781C48C06811B1012932D108E088
:103B200000780009FFF7B6FE00F084F80120A070CD
:103B300028E0007800F00F00FFF7ACFE00F07AF804
:103B4000E068401CE060A570E088401EE08019E05D
:103B50000D2000F06FF80320207013E0E07800F0F3
:103B600069F80420F8E72570032000F025F80646E0
:103B700000210120FFF7D0FE257003E00021012085
:103B8000FFF7CAFE304670BDE4000020054902463A
:103B900000204B78002B04D008781070002048706B
:103BA00001207047040100200249002048700120D4
:103BB0007047000004010020024901224A70087089
:103BC0001046704704010020064910B509780170BD
:103BD000012204490448FEF781F808B1002010BD15
:103BE000012010BD0601002084020020104810B5FD
:103BF0000E4AC0E90021002123B1012B04D0022B81
:103C000005D007E0016105E04FF4C06201E04FF428
:103C1000806202610C22C0E90521C1610448FDF700
:103C20007AFF08B1FCF7F0FB012010BD003801401D
:103C30008402002001B5012269460448FEF7AAF873
:103C400008B1002008BD012008BD0000840200204A
:103C500010B51D498EB01B4A0A6040F60D62002463
:103C60004A60C1E9024008460C61FDF7F7FB08B164
:103C7000FCF7CAFB4FF48050079007A91248FDF7E4
:103C80006EFC08B1FCF7C0FB0F48FDF7D3FD08B18F
:103C9000FCF7BAFB0B940BA90B480C94FDF7B6FB91
:103CA00008B1FCF7B1FB009401940294002269462C
:103CB00005480494FDF792FD08B1FCF7A5FB0EB092
:103CC000012010BD000800408001002038B500240C
:103CD0006846FFF779FF1349487830B1124A012846
:103CE00007D0022810D0032801D1FFF771FE20462B
:103CF00038BD002088809DF8003088880244401C30
:103D00008880137002200BE08888FF2807D89DF870
:103D1000003088880244401C88801370E5E7032047
:103D20004870E2E7F8000020B804002070B5084DA4
:103D30000024687810B1022803D10120FFF73CFF6E
:103D40000446FFF73FFE01206870204670BD00006A
:103D5000F800002070B5124C0025207810B1012821
:103D60001CD104E000210120FFF7D6FD16E0608899
:103D700050B1A0680078FFF75DFFA068401CA0600C
:103D80006088401E608009E00320FFF715FF0546AC
:103D900000210120FFF7C0FD00202070284670BDE3
:103DA000F8000020000000000000000001020304F1
:103DB00006070809000000000102030400C1814059
:103DC00001C0804101C0804100C1814001C08041EB
:103DD00000C1814000C1814001C0804101C08041DB
:103DE00000C1814000C1814001C0804100C18140CB
:103DF00001C0804101C0804100C1814001C08041BB
:103E000000C1814000C1814001C0804100C18140AA
:103E100001C0804101C0804100C1814000C181409A
:103E200001C0804101C0804100C1814001C080418A
:103E300000C1814000C1814001C0804101C080417A
:103E400000C1814000C1814001C0804100C181406A
:103E500001C0804101C0804100C1814000C181405A
:103E600001C0804101C0804100C1814001C080414A
:103E700000C1814000C1814001C0804100C181403A
:103E800001C0804101C0804100C1814001C080412A
:103E900000C1814000C1814001C0804101C080411A
:103EA00000C1814000C1814001C0804100C181400A
:103EB00001C0804101C0804100C1814000C0C101FA
:103EC000C30302C2C60607C705C5C404CC0C0DCD8A
:103ED0000FCFCE0E0ACACB0BC90908C8D81819D9FA
:103EE0001BDBDA1A1EDEDF1FDD1D1CDC14D4D5152A
:103EF000D71716D6D21213D311D1D010F03031F11A
:103F000033F3F23236F6F737F53534F43CFCFD3D49
:103F1000FF3F3EFEFA3A3BFB39F9F83828E8E92939
:103F2000EB2B2AEAEE2E2FEF2DEDEC2CE42425E5E9
:103F300027E7E62622E2E323E12120E0A06061A159
:103F400063A3A26266A6A767A56564A46CACAD6D09
:103F5000AF6F6EAEAA6A6BAB69A9A86878B8B97979
:103F6000BB7B7ABABE7E7FBF7DBDBC7CB47475B5A9
:103F700077B7B67672B2B373B17170B05090915199
:103F80009353529296565797559594549C5C5D9DC9
:103F90005F9F9E5E5A9A9B5B9959589888484989B9
:103FA0004B8B8A4A4E8E8F4F8D4D4C8C4484854569
:103FB000874746868242438341818040DC3F000838
:103FC00000000020080100007A2E0008E4400008EC
:103FD00008010020B00800008A2E000800A24A0450
:103FE0003075409C00000000000000000000000050
:103FF00000000000000000000000000000000000C1
:1040000000000000000000000000000000000000B0
:10401000000000000200000000000000000000009E
:104020000000000000000000000000000000000090
:104030000000000000000000000000000000000080
:1040400011000000113200080400000017310008C0
:1040500003000000B9300008100000002133000800
:10406000060000008B3200081700000075310008C0
:1040700001000000D52F00080500000035320008BF
:104080000F000000BD3200080200000047300008A9
:104090000000000000000000000000000000000020
:1040A0000000000000000000000000000000000010
:1040B0000000000000000000000000000000000000
:1040C0000000000000000000B80400200000000014
:1040D00000000000000000000000000000000000E0
:0440E00000000000DC
:04000005080000ED02
:00000001FF
